{
    "contractName": "NftMarket",
    "abi": [
        {
            "inputs": [],
            "stateMutability": "nonpayable",
            "type": "constructor"
        },
        {
            "anonymous": false,
            "inputs": [
                {
                    "indexed": true,
                    "internalType": "address",
                    "name": "owner",
                    "type": "address"
                },
                {
                    "indexed": true,
                    "internalType": "address",
                    "name": "approved",
                    "type": "address"
                },
                {
                    "indexed": true,
                    "internalType": "uint256",
                    "name": "tokenId",
                    "type": "uint256"
                }
            ],
            "name": "Approval",
            "type": "event"
        },
        {
            "anonymous": false,
            "inputs": [
                {
                    "indexed": true,
                    "internalType": "address",
                    "name": "owner",
                    "type": "address"
                },
                {
                    "indexed": true,
                    "internalType": "address",
                    "name": "operator",
                    "type": "address"
                },
                {
                    "indexed": false,
                    "internalType": "bool",
                    "name": "approved",
                    "type": "bool"
                }
            ],
            "name": "ApprovalForAll",
            "type": "event"
        },
        {
            "anonymous": false,
            "inputs": [
                {
                    "indexed": false,
                    "internalType": "uint256",
                    "name": "_fromTokenId",
                    "type": "uint256"
                },
                {
                    "indexed": false,
                    "internalType": "uint256",
                    "name": "_toTokenId",
                    "type": "uint256"
                }
            ],
            "name": "BatchMetadataUpdate",
            "type": "event"
        },
        {
            "anonymous": false,
            "inputs": [
                {
                    "indexed": false,
                    "internalType": "uint256",
                    "name": "_tokenId",
                    "type": "uint256"
                }
            ],
            "name": "MetadataUpdate",
            "type": "event"
        },
        {
            "anonymous": false,
            "inputs": [
                {
                    "indexed": false,
                    "internalType": "uint256",
                    "name": "tokenId",
                    "type": "uint256"
                },
                {
                    "indexed": false,
                    "internalType": "uint256",
                    "name": "price",
                    "type": "uint256"
                },
                {
                    "indexed": false,
                    "internalType": "address",
                    "name": "creator",
                    "type": "address"
                },
                {
                    "indexed": false,
                    "internalType": "bool",
                    "name": "isListed",
                    "type": "bool"
                }
            ],
            "name": "NftItemCreated",
            "type": "event"
        },
        {
            "anonymous": false,
            "inputs": [
                {
                    "indexed": true,
                    "internalType": "address",
                    "name": "from",
                    "type": "address"
                },
                {
                    "indexed": true,
                    "internalType": "address",
                    "name": "to",
                    "type": "address"
                },
                {
                    "indexed": true,
                    "internalType": "uint256",
                    "name": "tokenId",
                    "type": "uint256"
                }
            ],
            "name": "Transfer",
            "type": "event"
        },
        {
            "inputs": [
                {
                    "internalType": "address",
                    "name": "to",
                    "type": "address"
                },
                {
                    "internalType": "uint256",
                    "name": "tokenId",
                    "type": "uint256"
                }
            ],
            "name": "approve",
            "outputs": [],
            "stateMutability": "nonpayable",
            "type": "function"
        },
        {
            "inputs": [
                {
                    "internalType": "address",
                    "name": "owner",
                    "type": "address"
                }
            ],
            "name": "balanceOf",
            "outputs": [
                {
                    "internalType": "uint256",
                    "name": "",
                    "type": "uint256"
                }
            ],
            "stateMutability": "view",
            "type": "function"
        },
        {
            "inputs": [
                {
                    "internalType": "uint256",
                    "name": "tokenId",
                    "type": "uint256"
                }
            ],
            "name": "buyNft",
            "outputs": [],
            "stateMutability": "payable",
            "type": "function"
        },
        {
            "inputs": [
                {
                    "internalType": "uint256",
                    "name": "tokenId",
                    "type": "uint256"
                }
            ],
            "name": "getApproved",
            "outputs": [
                {
                    "internalType": "address",
                    "name": "",
                    "type": "address"
                }
            ],
            "stateMutability": "view",
            "type": "function"
        },
        {
            "inputs": [
                {
                    "internalType": "uint256",
                    "name": "tokenId",
                    "type": "uint256"
                }
            ],
            "name": "getNftItem",
            "outputs": [
                {
                    "components": [
                        {
                            "internalType": "uint256",
                            "name": "tokenId",
                            "type": "uint256"
                        },
                        {
                            "internalType": "uint256",
                            "name": "price",
                            "type": "uint256"
                        },
                        {
                            "internalType": "address",
                            "name": "creator",
                            "type": "address"
                        },
                        {
                            "internalType": "bool",
                            "name": "isListed",
                            "type": "bool"
                        }
                    ],
                    "internalType": "struct NftMarket.NftItem",
                    "name": "",
                    "type": "tuple"
                }
            ],
            "stateMutability": "view",
            "type": "function"
        },
        {
            "inputs": [
                {
                    "internalType": "address",
                    "name": "owner",
                    "type": "address"
                },
                {
                    "internalType": "address",
                    "name": "operator",
                    "type": "address"
                }
            ],
            "name": "isApprovedForAll",
            "outputs": [
                {
                    "internalType": "bool",
                    "name": "",
                    "type": "bool"
                }
            ],
            "stateMutability": "view",
            "type": "function"
        },
        {
            "inputs": [],
            "name": "listedItemsCount",
            "outputs": [
                {
                    "internalType": "uint256",
                    "name": "",
                    "type": "uint256"
                }
            ],
            "stateMutability": "view",
            "type": "function"
        },
        {
            "inputs": [],
            "name": "listingPrice",
            "outputs": [
                {
                    "internalType": "uint256",
                    "name": "",
                    "type": "uint256"
                }
            ],
            "stateMutability": "view",
            "type": "function"
        },
        {
            "inputs": [
                {
                    "internalType": "string",
                    "name": "tokenURI",
                    "type": "string"
                },
                {
                    "internalType": "uint256",
                    "name": "price",
                    "type": "uint256"
                }
            ],
            "name": "mintToken",
            "outputs": [
                {
                    "internalType": "uint256",
                    "name": "",
                    "type": "uint256"
                }
            ],
            "stateMutability": "payable",
            "type": "function"
        },
        {
            "inputs": [],
            "name": "name",
            "outputs": [
                {
                    "internalType": "string",
                    "name": "",
                    "type": "string"
                }
            ],
            "stateMutability": "view",
            "type": "function"
        },
        {
            "inputs": [
                {
                    "internalType": "uint256",
                    "name": "tokenId",
                    "type": "uint256"
                }
            ],
            "name": "ownerOf",
            "outputs": [
                {
                    "internalType": "address",
                    "name": "",
                    "type": "address"
                }
            ],
            "stateMutability": "view",
            "type": "function"
        },
        {
            "inputs": [
                {
                    "internalType": "address",
                    "name": "from",
                    "type": "address"
                },
                {
                    "internalType": "address",
                    "name": "to",
                    "type": "address"
                },
                {
                    "internalType": "uint256",
                    "name": "tokenId",
                    "type": "uint256"
                }
            ],
            "name": "safeTransferFrom",
            "outputs": [],
            "stateMutability": "nonpayable",
            "type": "function"
        },
        {
            "inputs": [
                {
                    "internalType": "address",
                    "name": "from",
                    "type": "address"
                },
                {
                    "internalType": "address",
                    "name": "to",
                    "type": "address"
                },
                {
                    "internalType": "uint256",
                    "name": "tokenId",
                    "type": "uint256"
                },
                {
                    "internalType": "bytes",
                    "name": "data",
                    "type": "bytes"
                }
            ],
            "name": "safeTransferFrom",
            "outputs": [],
            "stateMutability": "nonpayable",
            "type": "function"
        },
        {
            "inputs": [
                {
                    "internalType": "address",
                    "name": "operator",
                    "type": "address"
                },
                {
                    "internalType": "bool",
                    "name": "approved",
                    "type": "bool"
                }
            ],
            "name": "setApprovalForAll",
            "outputs": [],
            "stateMutability": "nonpayable",
            "type": "function"
        },
        {
            "inputs": [
                {
                    "internalType": "bytes4",
                    "name": "interfaceId",
                    "type": "bytes4"
                }
            ],
            "name": "supportsInterface",
            "outputs": [
                {
                    "internalType": "bool",
                    "name": "",
                    "type": "bool"
                }
            ],
            "stateMutability": "view",
            "type": "function"
        },
        {
            "inputs": [],
            "name": "symbol",
            "outputs": [
                {
                    "internalType": "string",
                    "name": "",
                    "type": "string"
                }
            ],
            "stateMutability": "view",
            "type": "function"
        },
        {
            "inputs": [
                {
                    "internalType": "uint256",
                    "name": "index",
                    "type": "uint256"
                }
            ],
            "name": "tokenByIndex",
            "outputs": [
                {
                    "internalType": "uint256",
                    "name": "",
                    "type": "uint256"
                }
            ],
            "stateMutability": "view",
            "type": "function"
        },
        {
            "inputs": [
                {
                    "internalType": "uint256",
                    "name": "tokenId",
                    "type": "uint256"
                }
            ],
            "name": "tokenURI",
            "outputs": [
                {
                    "internalType": "string",
                    "name": "",
                    "type": "string"
                }
            ],
            "stateMutability": "view",
            "type": "function"
        },
        {
            "inputs": [
                {
                    "internalType": "string",
                    "name": "tokenURI",
                    "type": "string"
                }
            ],
            "name": "tokenURIExists",
            "outputs": [
                {
                    "internalType": "bool",
                    "name": "",
                    "type": "bool"
                }
            ],
            "stateMutability": "view",
            "type": "function"
        },
        {
            "inputs": [],
            "name": "totalSupply",
            "outputs": [
                {
                    "internalType": "uint256",
                    "name": "",
                    "type": "uint256"
                }
            ],
            "stateMutability": "view",
            "type": "function"
        },
        {
            "inputs": [
                {
                    "internalType": "address",
                    "name": "from",
                    "type": "address"
                },
                {
                    "internalType": "address",
                    "name": "to",
                    "type": "address"
                },
                {
                    "internalType": "uint256",
                    "name": "tokenId",
                    "type": "uint256"
                }
            ],
            "name": "transferFrom",
            "outputs": [],
            "stateMutability": "nonpayable",
            "type": "function"
        }
    ],
    "bytecode": "60806040526658d15e176280006007553480156200001c57600080fd5b506040518060400160405280600c81526020016b10dc99585d1d5c995cd3919560a21b8152506040518060400160405280600481526020016310d3919560e21b81525081600090816200007091906200012d565b5060016200007f82826200012d565b505050620001f9565b634e487b7160e01b600052604160045260246000fd5b600181811c90821680620000b357607f821691505b602082108103620000d457634e487b7160e01b600052602260045260246000fd5b50919050565b601f8211156200012857600081815260208120601f850160051c81016020861015620001035750805b601f850160051c820191505b8181101562000124578281556001016200010f565b5050505b505050565b81516001600160401b0381111562000149576200014962000088565b62000161816200015a84546200009e565b84620000da565b602080601f831160018114620001995760008415620001805750858301515b600019600386901b1c1916600185901b17855562000124565b600085815260208120601f198616915b82811015620001ca57888601518255948401946001909101908401620001a9565b5085821015620001e95787850151600019600388901b60f8161c191681555b5050505050600190811b01905550565b611da680620002096000396000f3fe60806040526004361061012a5760003560e01c80636352211e116100ab578063b88d4fde1161006f578063b88d4fde146103d9578063c046372c146103f9578063c78f19f91461040c578063c87b56dd14610422578063ccb4918d14610442578063e985e9c51461045757600080fd5b80636352211e146102925780636f1a0af5146102b257806370a082311461038457806395d89b41146103a4578063a22cb465146103b957600080fd5b806323b872dd116100f257806323b872dd146101ff578063243adbdd1461021f57806342842e0e1461023257806343d32ae7146102525780634f6ccce71461027257600080fd5b806301ffc9a71461012f57806306fdde0314610164578063081812fc14610186578063095ea7b3146101be57806318160ddd146101e0575b600080fd5b34801561013b57600080fd5b5061014f61014a366004611742565b6104a0565b60405190151581526020015b60405180910390f35b34801561017057600080fd5b506101796104cb565b60405161015b91906117af565b34801561019257600080fd5b506101a66101a13660046117c2565b61055d565b6040516001600160a01b03909116815260200161015b565b3480156101ca57600080fd5b506101de6101d93660046117f7565b610584565b005b3480156101ec57600080fd5b50600a545b60405190815260200161015b565b34801561020b57600080fd5b506101de61021a366004611821565b61069e565b6101de61022d3660046117c2565b6106cf565b34801561023e57600080fd5b506101de61024d366004611821565b610800565b34801561025e57600080fd5b5061014f61026d366004611909565b61081b565b34801561027e57600080fd5b506101f161028d3660046117c2565b61084b565b34801561029e57600080fd5b506101a66102ad3660046117c2565b6108bf565b3480156102be57600080fd5b506103466102cd3660046117c2565b604080516080810182526000808252602082018190529181018290526060810191909152506000908152600c6020908152604091829020825160808101845281548152600182015492810192909252600201546001600160a01b03811692820192909252600160a01b90910460ff161515606082015290565b60405161015b919081518152602080830151908201526040808301516001600160a01b03169082015260609182015115159181019190915260800190565b34801561039057600080fd5b506101f161039f36600461193e565b61091f565b3480156103b057600080fd5b506101796109a5565b3480156103c557600080fd5b506101de6103d4366004611959565b6109b4565b3480156103e557600080fd5b506101de6103f4366004611995565b6109c3565b6101f1610407366004611a11565b6109f5565b34801561041857600080fd5b506101f160075481565b34801561042e57600080fd5b5061017961043d3660046117c2565b610b2b565b34801561044e57600080fd5b506101f1610c3b565b34801561046357600080fd5b5061014f610472366004611a56565b6001600160a01b03918216600090815260056020908152604080832093909416825291909152205460ff1690565b60006001600160e01b03198216632483248360e11b14806104c557506104c582610c4b565b92915050565b6060600080546104da90611a89565b80601f016020809104026020016040519081016040528092919081815260200182805461050690611a89565b80156105535780601f1061052857610100808354040283529160200191610553565b820191906000526020600020905b81548152906001019060200180831161053657829003601f168201915b5050505050905090565b600061056882610c9b565b506000908152600460205260409020546001600160a01b031690565b600061058f826108bf565b9050806001600160a01b0316836001600160a01b0316036106015760405162461bcd60e51b815260206004820152602160248201527f4552433732313a20617070726f76616c20746f2063757272656e74206f776e656044820152603960f91b60648201526084015b60405180910390fd5b336001600160a01b038216148061061d575061061d8133610472565b61068f5760405162461bcd60e51b815260206004820152603d60248201527f4552433732313a20617070726f76652063616c6c6572206973206e6f7420746f60448201527f6b656e206f776e6572206f7220617070726f76656420666f7220616c6c00000060648201526084016105f8565b6106998383610cfd565b505050565b6106a83382610d6b565b6106c45760405162461bcd60e51b81526004016105f890611ac3565b610699838383610de9565b6000818152600c6020526040812060010154906106eb836108bf565b90506001600160a01b03811633036107455760405162461bcd60e51b815260206004820152601860248201527f596f7520616c7265616479206f776e2074686973204e4654000000000000000060448201526064016105f8565b8134146107945760405162461bcd60e51b815260206004820152601e60248201527f506c65617365207375626d6974207468652061736b696e67207072696365000060448201526064016105f8565b6000838152600c60205260409020600201805460ff60a01b191690556107ba6008610f4d565b6107c5813385610de9565b6040516001600160a01b038216903480156108fc02916000818181858888f193505050501580156107fa573d6000803e3d6000fd5b50505050565b610699838383604051806020016040528060008152506109c3565b6000600b8260405161082d9190611b10565b9081526040519081900360200190205460ff16151560011492915050565b6000610856600a5490565b821061089a5760405162461bcd60e51b8152602060048201526013602482015272496e646578206f7574206f6620626f756e647360681b60448201526064016105f8565b600a82815481106108ad576108ad611b2c565b90600052602060002001549050919050565b6000818152600260205260408120546001600160a01b0316806104c55760405162461bcd60e51b8152602060048201526018602482015277115490cdcc8c4e881a5b9d985b1a59081d1bdad95b88125160421b60448201526064016105f8565b60006001600160a01b0382166109895760405162461bcd60e51b815260206004820152602960248201527f4552433732313a2061646472657373207a65726f206973206e6f7420612076616044820152683634b21037bbb732b960b91b60648201526084016105f8565b506001600160a01b031660009081526003602052604090205490565b6060600180546104da90611a89565b6109bf338383610fa4565b5050565b6109cd3383610d6b565b6109e95760405162461bcd60e51b81526004016105f890611ac3565b6107fa84848484611072565b6000610a008361081b565b15610a4d5760405162461bcd60e51b815260206004820152601860248201527f546f6b656e2055524920616c726561647920657869737473000000000000000060448201526064016105f8565b6007543414610aaa5760405162461bcd60e51b8152602060048201526024808201527f5072696365206d75737420626520657175616c20746f206c697374696e6720706044820152637269636560e01b60648201526084016105f8565b610ab8600980546001019055565b610ac6600880546001019055565b6000610ad160095490565b9050610add33826110a5565b610ae781856110bf565b610af1818461118b565b6001600b85604051610b039190611b10565b908152604051908190036020019020805491151560ff19909216919091179055905092915050565b6060610b3682610c9b565b60008281526006602052604081208054610b4f90611a89565b80601f0160208091040260200160405190810160405280929190818152602001828054610b7b90611a89565b8015610bc85780601f10610b9d57610100808354040283529160200191610bc8565b820191906000526020600020905b815481529060010190602001808311610bab57829003601f168201915b505050505090506000610be660408051602081019091526000815290565b90508051600003610bf8575092915050565b815115610c2a578082604051602001610c12929190611b42565b60405160208183030381529060405292505050919050565b610c338461128e565b949350505050565b6000610c4660085490565b905090565b60006001600160e01b031982166380ac58cd60e01b1480610c7c57506001600160e01b03198216635b5e139f60e01b145b806104c557506301ffc9a760e01b6001600160e01b03198316146104c5565b6000818152600260205260409020546001600160a01b0316610cfa5760405162461bcd60e51b8152602060048201526018602482015277115490cdcc8c4e881a5b9d985b1a59081d1bdad95b88125160421b60448201526064016105f8565b50565b600081815260046020526040902080546001600160a01b0319166001600160a01b0384169081179091558190610d32826108bf565b6001600160a01b03167f8c5be1e5ebec7d5bd14f71427d1e84f3dd0314c0f7b2291e5b200ac8c7c3b92560405160405180910390a45050565b600080610d77836108bf565b9050806001600160a01b0316846001600160a01b03161480610dbe57506001600160a01b0380821660009081526005602090815260408083209388168352929052205460ff165b80610c335750836001600160a01b0316610dd78461055d565b6001600160a01b031614949350505050565b826001600160a01b0316610dfc826108bf565b6001600160a01b031614610e225760405162461bcd60e51b81526004016105f890611b71565b6001600160a01b038216610e845760405162461bcd60e51b8152602060048201526024808201527f4552433732313a207472616e7366657220746f20746865207a65726f206164646044820152637265737360e01b60648201526084016105f8565b826001600160a01b0316610e97826108bf565b6001600160a01b031614610ebd5760405162461bcd60e51b81526004016105f890611b71565b600081815260046020908152604080832080546001600160a01b03199081169091556001600160a01b0387811680865260038552838620805460001901905590871680865283862080546001019055868652600290945282852080549092168417909155905184937fddf252ad1be2c89b69c2b068fc378daa952ba7f163c4a11628f55a4df523b3ef91a4505050565b805480610f9c5760405162461bcd60e51b815260206004820152601b60248201527f436f756e7465723a2064656372656d656e74206f766572666c6f77000000000060448201526064016105f8565b600019019055565b816001600160a01b0316836001600160a01b0316036110055760405162461bcd60e51b815260206004820152601960248201527f4552433732313a20617070726f766520746f2063616c6c65720000000000000060448201526064016105f8565b6001600160a01b03838116600081815260056020908152604080832094871680845294825291829020805460ff191686151590811790915591519182527f17307eab39ab6107e8899845ad3d59bd9653f200f220920489ca2b5937696c31910160405180910390a3505050565b61107d848484610de9565b61108984848484611302565b6107fa5760405162461bcd60e51b81526004016105f890611bb6565b6109bf828260405180602001604052806000815250611403565b6000828152600260205260409020546001600160a01b031661113a5760405162461bcd60e51b815260206004820152602e60248201527f45524337323155524953746f726167653a2055524920736574206f66206e6f6e60448201526d32bc34b9ba32b73a103a37b5b2b760911b60648201526084016105f8565b60008281526006602052604090206111528282611c56565b506040518281527ff8e1a15aba9398e019f0b49df1a4fde98ee17ae345cb5f6b5e2c27f5033e8ce7906020015b60405180910390a15050565b600081116111db5760405162461bcd60e51b815260206004820152601c60248201527f5072696365206d757374206265206174206c656173742031207765690000000060448201526064016105f8565b60408051608080820183528482526020808301858152338486018181526001606080880182815260008c8152600c88528a90209851895594518883015591516002909701805494511515600160a01b026001600160a81b03199095166001600160a01b039098169790971793909317909555855188815292830187905294820194909452918201929092527f470031062672bc0246e132c723a729c4676710ec663a29e86c88678032daddea910161117f565b606061129982610c9b565b60006112b060408051602081019091526000815290565b905060008151116112d057604051806020016040528060008152506112fb565b806112da84611436565b6040516020016112eb929190611b42565b6040516020818303038152906040525b9392505050565b60006001600160a01b0384163b156113f857604051630a85bd0160e11b81526001600160a01b0385169063150b7a0290611346903390899088908890600401611d16565b6020604051808303816000875af1925050508015611381575060408051601f3d908101601f1916820190925261137e91810190611d53565b60015b6113de573d8080156113af576040519150601f19603f3d011682016040523d82523d6000602084013e6113b4565b606091505b5080516000036113d65760405162461bcd60e51b81526004016105f890611bb6565b805181602001fd5b6001600160e01b031916630a85bd0160e11b149050610c33565b506001949350505050565b61140d83836114c9565b61141a6000848484611302565b6106995760405162461bcd60e51b81526004016105f890611bb6565b6060600061144383611654565b600101905060008167ffffffffffffffff8111156114635761146361185d565b6040519080825280601f01601f19166020018201604052801561148d576020820181803683370190505b5090508181016020015b600019016f181899199a1a9b1b9c1cb0b131b232b360811b600a86061a8153600a850494508461149757509392505050565b6001600160a01b03821661151f5760405162461bcd60e51b815260206004820181905260248201527f4552433732313a206d696e7420746f20746865207a65726f206164647265737360448201526064016105f8565b6000818152600260205260409020546001600160a01b0316156115845760405162461bcd60e51b815260206004820152601c60248201527f4552433732313a20746f6b656e20616c7265616479206d696e7465640000000060448201526064016105f8565b6000818152600260205260409020546001600160a01b0316156115e95760405162461bcd60e51b815260206004820152601c60248201527f4552433732313a20746f6b656e20616c7265616479206d696e7465640000000060448201526064016105f8565b6001600160a01b038216600081815260036020908152604080832080546001019055848352600290915280822080546001600160a01b0319168417905551839291907fddf252ad1be2c89b69c2b068fc378daa952ba7f163c4a11628f55a4df523b3ef908290a45050565b60008072184f03e93ff9f4daa797ed6e38ed64bf6a1f0160401b83106116935772184f03e93ff9f4daa797ed6e38ed64bf6a1f0160401b830492506040015b6d04ee2d6d415b85acef810000000083106116bf576d04ee2d6d415b85acef8100000000830492506020015b662386f26fc1000083106116dd57662386f26fc10000830492506010015b6305f5e10083106116f5576305f5e100830492506008015b612710831061170957612710830492506004015b6064831061171b576064830492506002015b600a83106104c55760010192915050565b6001600160e01b031981168114610cfa57600080fd5b60006020828403121561175457600080fd5b81356112fb8161172c565b60005b8381101561177a578181015183820152602001611762565b50506000910152565b6000815180845261179b81602086016020860161175f565b601f01601f19169290920160200192915050565b6020815260006112fb6020830184611783565b6000602082840312156117d457600080fd5b5035919050565b80356001600160a01b03811681146117f257600080fd5b919050565b6000806040838503121561180a57600080fd5b611813836117db565b946020939093013593505050565b60008060006060848603121561183657600080fd5b61183f846117db565b925061184d602085016117db565b9150604084013590509250925092565b634e487b7160e01b600052604160045260246000fd5b600067ffffffffffffffff8084111561188e5761188e61185d565b604051601f8501601f19908116603f011681019082821181831017156118b6576118b661185d565b816040528093508581528686860111156118cf57600080fd5b858560208301376000602087830101525050509392505050565b600082601f8301126118fa57600080fd5b6112fb83833560208501611873565b60006020828403121561191b57600080fd5b813567ffffffffffffffff81111561193257600080fd5b610c33848285016118e9565b60006020828403121561195057600080fd5b6112fb826117db565b6000806040838503121561196c57600080fd5b611975836117db565b91506020830135801515811461198a57600080fd5b809150509250929050565b600080600080608085870312156119ab57600080fd5b6119b4856117db565b93506119c2602086016117db565b925060408501359150606085013567ffffffffffffffff8111156119e557600080fd5b8501601f810187136119f657600080fd5b611a0587823560208401611873565b91505092959194509250565b60008060408385031215611a2457600080fd5b823567ffffffffffffffff811115611a3b57600080fd5b611a47858286016118e9565b95602094909401359450505050565b60008060408385031215611a6957600080fd5b611a72836117db565b9150611a80602084016117db565b90509250929050565b600181811c90821680611a9d57607f821691505b602082108103611abd57634e487b7160e01b600052602260045260246000fd5b50919050565b6020808252602d908201527f4552433732313a2063616c6c6572206973206e6f7420746f6b656e206f776e6560408201526c1c881bdc88185c1c1c9bdd9959609a1b606082015260800190565b60008251611b2281846020870161175f565b9190910192915050565b634e487b7160e01b600052603260045260246000fd5b60008351611b5481846020880161175f565b835190830190611b6881836020880161175f565b01949350505050565b60208082526025908201527f4552433732313a207472616e736665722066726f6d20696e636f72726563742060408201526437bbb732b960d91b606082015260800190565b60208082526032908201527f4552433732313a207472616e7366657220746f206e6f6e20455243373231526560408201527131b2b4bb32b91034b6b83632b6b2b73a32b960711b606082015260800190565b601f82111561069957600081815260208120601f850160051c81016020861015611c2f5750805b601f850160051c820191505b81811015611c4e57828155600101611c3b565b505050505050565b815167ffffffffffffffff811115611c7057611c7061185d565b611c8481611c7e8454611a89565b84611c08565b602080601f831160018114611cb95760008415611ca15750858301515b600019600386901b1c1916600185901b178555611c4e565b600085815260208120601f198616915b82811015611ce857888601518255948401946001909101908401611cc9565b5085821015611d065787850151600019600388901b60f8161c191681555b5050505050600190811b01905550565b6001600160a01b0385811682528416602082015260408101839052608060608201819052600090611d4990830184611783565b9695505050505050565b600060208284031215611d6557600080fd5b81516112fb8161172c56fea26469706673582212205614facd7d4fcaebbf764dd693cbb8f3914dd33e17f07ee72f14ad38cd59a52c64736f6c63430008130033",
    "sourcePath": "c:/Users/Administrator/blockchain/nft-marketplace/contracts/NftMarket.sol",
    "compiler": {
        "name": "solc",
        "version": "0.8.19+commit.7dd6d404"
    },
    "functionHashes": {
        "approve(address,uint256)": "095ea7b3",
        "balanceOf(address)": "70a08231",
        "buyNft(uint256)": "243adbdd",
        "getApproved(uint256)": "081812fc",
        "getNftItem(uint256)": "6f1a0af5",
        "isApprovedForAll(address,address)": "e985e9c5",
        "listedItemsCount()": "ccb4918d",
        "listingPrice()": "c78f19f9",
        "mintToken(string,uint256)": "c046372c",
        "name()": "06fdde03",
        "ownerOf(uint256)": "6352211e",
        "safeTransferFrom(address,address,uint256)": "42842e0e",
        "safeTransferFrom(address,address,uint256,bytes)": "b88d4fde",
        "setApprovalForAll(address,bool)": "a22cb465",
        "supportsInterface(bytes4)": "01ffc9a7",
        "symbol()": "95d89b41",
        "tokenByIndex(uint256)": "4f6ccce7",
        "tokenURI(uint256)": "c87b56dd",
        "tokenURIExists(string)": "43d32ae7",
        "totalSupply()": "18160ddd",
        "transferFrom(address,address,uint256)": "23b872dd"
    },
    "gasEstimates": {
        "creation": {
            "codeDepositCost": "1518000",
            "executionCost": "infinite",
            "totalCost": "infinite"
        },
        "external": {
            "approve(address,uint256)": "infinite",
            "balanceOf(address)": "2656",
            "buyNft(uint256)": "infinite",
            "getApproved(uint256)": "4792",
            "getNftItem(uint256)": "7101",
            "isApprovedForAll(address,address)": "infinite",
            "listedItemsCount()": "2440",
            "listingPrice()": "2361",
            "mintToken(string,uint256)": "infinite",
            "name()": "infinite",
            "ownerOf(uint256)": "2561",
            "safeTransferFrom(address,address,uint256)": "infinite",
            "safeTransferFrom(address,address,uint256,bytes)": "infinite",
            "setApprovalForAll(address,bool)": "26794",
            "supportsInterface(bytes4)": "infinite",
            "symbol()": "infinite",
            "tokenByIndex(uint256)": "6826",
            "tokenURI(uint256)": "infinite",
            "tokenURIExists(string)": "infinite",
            "totalSupply()": "2393",
            "transferFrom(address,address,uint256)": "infinite"
        },
        "internal": {
            "_addTokenToAllTokensEnumaration(uint256)": "infinite",
            "_beforeTokenTransfer(address,address,uint256)": "infinite",
            "_createNftItem(uint256,uint256)": "infinite"
        }
    }
}